{
  "contractName": "Voting",
  "abi": [
    {
      "inputs": [
        {
          "internalType": "uint256",
          "name": "",
          "type": "uint256"
        }
      ],
      "name": "candidates",
      "outputs": [
        {
          "internalType": "string",
          "name": "name",
          "type": "string"
        },
        {
          "internalType": "uint256",
          "name": "voteCount",
          "type": "uint256"
        },
        {
          "internalType": "bool",
          "name": "exists",
          "type": "bool"
        }
      ],
      "stateMutability": "view",
      "type": "function",
      "constant": true
    },
    {
      "inputs": [],
      "name": "candidatesCount",
      "outputs": [
        {
          "internalType": "uint256",
          "name": "",
          "type": "uint256"
        }
      ],
      "stateMutability": "view",
      "type": "function",
      "constant": true
    },
    {
      "inputs": [
        {
          "internalType": "uint256",
          "name": "",
          "type": "uint256"
        }
      ],
      "name": "hasVoted",
      "outputs": [
        {
          "internalType": "bool",
          "name": "",
          "type": "bool"
        }
      ],
      "stateMutability": "view",
      "type": "function",
      "constant": true
    },
    {
      "inputs": [],
      "name": "totalVotes",
      "outputs": [
        {
          "internalType": "uint256",
          "name": "",
          "type": "uint256"
        }
      ],
      "stateMutability": "view",
      "type": "function",
      "constant": true
    },
    {
      "inputs": [
        {
          "internalType": "string",
          "name": "_name",
          "type": "string"
        }
      ],
      "name": "addCandidate",
      "outputs": [],
      "stateMutability": "nonpayable",
      "type": "function"
    },
    {
      "inputs": [
        {
          "internalType": "uint256",
          "name": "candidateId",
          "type": "uint256"
        }
      ],
      "name": "removeCandidate",
      "outputs": [],
      "stateMutability": "nonpayable",
      "type": "function"
    },
    {
      "inputs": [
        {
          "internalType": "uint256",
          "name": "_candidateId",
          "type": "uint256"
        }
      ],
      "name": "vote",
      "outputs": [],
      "stateMutability": "nonpayable",
      "type": "function"
    },
    {
      "inputs": [
        {
          "internalType": "uint256",
          "name": "candidateId",
          "type": "uint256"
        }
      ],
      "name": "getVoteCount",
      "outputs": [
        {
          "internalType": "uint256",
          "name": "",
          "type": "uint256"
        }
      ],
      "stateMutability": "view",
      "type": "function",
      "constant": true
    },
    {
      "inputs": [],
      "name": "getCandidatesCount",
      "outputs": [
        {
          "internalType": "uint256",
          "name": "",
          "type": "uint256"
        }
      ],
      "stateMutability": "view",
      "type": "function",
      "constant": true
    },
    {
      "inputs": [],
      "name": "getTotalVotes",
      "outputs": [
        {
          "internalType": "uint256",
          "name": "",
          "type": "uint256"
        }
      ],
      "stateMutability": "view",
      "type": "function",
      "constant": true
    },
    {
      "inputs": [
        {
          "internalType": "uint256",
          "name": "candidateId",
          "type": "uint256"
        }
      ],
      "name": "getCandidate",
      "outputs": [
        {
          "internalType": "string",
          "name": "",
          "type": "string"
        },
        {
          "internalType": "uint256",
          "name": "",
          "type": "uint256"
        }
      ],
      "stateMutability": "view",
      "type": "function",
      "constant": true
    }
  ],
  "bytecode": "0x608060405234801561001057600080fd5b50610eeb806100206000396000f3fe608060405234801561001057600080fd5b50600436106100a95760003560e01c806335b8e8201161007157806335b8e82014610154578063462e91ec146101855780639a0e7d66146101a1578063b2c2f2e8146101bf578063bb9aa28f146101ef578063ecca031f1461020d576100a9565b80630121b93f146100ae57806309e9d7e2146100ca5780630d15fd77146100e65780632d35a8a2146101045780633477ee2e14610122575b600080fd5b6100c860048036038101906100c39190610a78565b61023d565b005b6100e460048036038101906100df9190610a78565b6102d4565b005b6100ee6104a8565b6040516100fb9190610be1565b60405180910390f35b61010c6104ae565b6040516101199190610be1565b60405180910390f35b61013c60048036038101906101379190610a78565b6104b4565b60405161014b93929190610b83565b60405180910390f35b61016e60048036038101906101699190610a78565b610573565b60405161017c929190610b53565b60405180910390f35b61019f600480360381019061019a9190610a37565b6106e1565b005b6101a9610779565b6040516101b69190610be1565b60405180910390f35b6101d960048036038101906101d49190610a78565b610783565b6040516101e69190610be1565b60405180910390f35b6101f7610820565b6040516102049190610be1565b60405180910390f35b61022760048036038101906102229190610a78565b61082a565b6040516102349190610b38565b60405180910390f35b60008111801561024f57506002548111155b61028e576040517f08c379a000000000000000000000000000000000000000000000000000000000815260040161028590610bc1565b60405180910390fd5b60008082815260200190815260200160002060010160008154809291906102b490610db7565b9190505550600360008154809291906102cc90610db7565b919050555050565b806000811180156102e757506002548111155b8015610312575060008082815260200190815260200160002060020160009054906101000a900460ff165b610351576040517f08c379a000000000000000000000000000000000000000000000000000000000815260040161034890610bc1565b60405180910390fd5b60008083815260200190815260200160002060008082016000610374919061084a565b60018201600090556002820160006101000a81549060ff0219169055505060006001836103a19190610c79565b90505b600254811161048b576000808281526020019081526020016000206000806001846103cf9190610ccf565b815260200190815260200160002060008201816000019080546103f190610d85565b6103fc92919061088a565b50600182015481600101556002820160009054906101000a900460ff168160020160006101000a81548160ff0219169083151502179055509050506000808281526020019081526020016000206000808201600061045a919061084a565b60018201600090556002820160006101000a81549060ff02191690555050808061048390610db7565b9150506103a4565b506002600081548092919061049f90610d5b565b91905055505050565b60035481565b60025481565b60006020528060005260406000206000915090508060000180546104d790610d85565b80601f016020809104026020016040519081016040528092919081815260200182805461050390610d85565b80156105505780601f1061052557610100808354040283529160200191610550565b820191906000526020600020905b81548152906001019060200180831161053357829003601f168201915b5050505050908060010154908060020160009054906101000a900460ff16905083565b606060008260008111801561058a57506002548111155b80156105b5575060008082815260200190815260200160002060020160009054906101000a900460ff165b6105f4576040517f08c379a00000000000000000000000000000000000000000000000000000000081526004016105eb90610bc1565b60405180910390fd5b600080600086815260200190815260200160002060405180606001604052908160008201805461062390610d85565b80601f016020809104026020016040519081016040528092919081815260200182805461064f90610d85565b801561069c5780601f106106715761010080835404028352916020019161069c565b820191906000526020600020905b81548152906001019060200180831161067f57829003601f168201915b50505050508152602001600182015481526020016002820160009054906101000a900460ff161515151581525050905080600001518160200151935093505050915091565b600260008154809291906106f490610db7565b91905055506040518060600160405280828152602001600081526020016001151581525060008060025481526020019081526020016000206000820151816000019080519060200190610748929190610917565b506020820151816001015560408201518160020160006101000a81548160ff02191690831515021790555090505050565b6000600354905090565b60008160008111801561079857506002548111155b80156107c3575060008082815260200190815260200160002060020160009054906101000a900460ff165b610802576040517f08c379a00000000000000000000000000000000000000000000000000000000081526004016107f990610bc1565b60405180910390fd5b60008084815260200190815260200160002060010154915050919050565b6000600254905090565b60016020528060005260406000206000915054906101000a900460ff1681565b50805461085690610d85565b6000825580601f106108685750610887565b601f016020900490600052602060002090810190610886919061099d565b5b50565b82805461089690610d85565b90600052602060002090601f0160209004810192826108b85760008555610906565b82601f106108c95780548555610906565b8280016001018555821561090657600052602060002091601f016020900482015b828111156109055782548255916001019190600101906108ea565b5b509050610913919061099d565b5090565b82805461092390610d85565b90600052602060002090601f016020900481019282610945576000855561098c565b82601f1061095e57805160ff191683800117855561098c565b8280016001018555821561098c579182015b8281111561098b578251825591602001919060010190610970565b5b509050610999919061099d565b5090565b5b808211156109b657600081600090555060010161099e565b5090565b60006109cd6109c884610c2d565b610bfc565b9050828152602081018484840111156109e557600080fd5b6109f0848285610d19565b509392505050565b600082601f830112610a0957600080fd5b8135610a198482602086016109ba565b91505092915050565b600081359050610a3181610e9e565b92915050565b600060208284031215610a4957600080fd5b600082013567ffffffffffffffff811115610a6357600080fd5b610a6f848285016109f8565b91505092915050565b600060208284031215610a8a57600080fd5b6000610a9884828501610a22565b91505092915050565b610aaa81610d03565b82525050565b6000610abb82610c5d565b610ac58185610c68565b9350610ad5818560208601610d28565b610ade81610e8d565b840191505092915050565b6000610af6601483610c68565b91507f496e76616c69642063616e6469646174652049440000000000000000000000006000830152602082019050919050565b610b3281610d0f565b82525050565b6000602082019050610b4d6000830184610aa1565b92915050565b60006040820190508181036000830152610b6d8185610ab0565b9050610b7c6020830184610b29565b9392505050565b60006060820190508181036000830152610b9d8186610ab0565b9050610bac6020830185610b29565b610bb96040830184610aa1565b949350505050565b60006020820190508181036000830152610bda81610ae9565b9050919050565b6000602082019050610bf66000830184610b29565b92915050565b6000604051905081810181811067ffffffffffffffff82111715610c2357610c22610e5e565b5b8060405250919050565b600067ffffffffffffffff821115610c4857610c47610e5e565b5b601f19601f8301169050602081019050919050565b600081519050919050565b600082825260208201905092915050565b6000610c8482610d0f565b9150610c8f83610d0f565b9250827fffffffffffffffffffffffffffffffffffffffffffffffffffffffffffffffff03821115610cc457610cc3610e00565b5b828201905092915050565b6000610cda82610d0f565b9150610ce583610d0f565b925082821015610cf857610cf7610e00565b5b828203905092915050565b60008115159050919050565b6000819050919050565b82818337600083830152505050565b60005b83811015610d46578082015181840152602081019050610d2b565b83811115610d55576000848401525b50505050565b6000610d6682610d0f565b91506000821415610d7a57610d79610e00565b5b600182039050919050565b60006002820490506001821680610d9d57607f821691505b60208210811415610db157610db0610e2f565b5b50919050565b6000610dc282610d0f565b91507fffffffffffffffffffffffffffffffffffffffffffffffffffffffffffffffff821415610df557610df4610e00565b5b600182019050919050565b7f4e487b7100000000000000000000000000000000000000000000000000000000600052601160045260246000fd5b7f4e487b7100000000000000000000000000000000000000000000000000000000600052602260045260246000fd5b7f4e487b7100000000000000000000000000000000000000000000000000000000600052604160045260246000fd5b6000601f19601f8301169050919050565b610ea781610d0f565b8114610eb257600080fd5b5056fea264697066735822122033c2738a45a922d3e5a5e8abd10e9950e71a71e2e1916f1d6407d279d21fac3464736f6c63430008000033",
  "immutableReferences": {},
  "source": "// SPDX-License-Identifier: MIT\r\npragma solidity ^0.8.0;\r\n\r\ncontract Voting {\r\n    struct Candidate {\r\n        string name;\r\n        uint256 voteCount;\r\n        bool exists;\r\n    }\r\n\r\n    mapping(uint256 => Candidate) public candidates;\r\n    mapping(uint256 => bool) public hasVoted; // to track if a voter has already voted with a specific number\r\n    uint256 public candidatesCount;\r\n    uint256 public totalVotes;\r\n\r\n    modifier hasNotVoted(uint256 voterNumber) {\r\n        require(!hasVoted[voterNumber], \"This number has already voted\");\r\n        _;\r\n    }\r\n\r\n    modifier validCandidate(uint256 candidateId) {\r\n        require(candidateId > 0 && candidateId <= candidatesCount && candidates[candidateId].exists, \"Invalid candidate ID\");\r\n        _;\r\n    }\r\n\r\n    // Add a candidate\r\n    function addCandidate(string memory _name) public {\r\n        candidatesCount++;\r\n        candidates[candidatesCount] = Candidate(_name, 0, true);\r\n    }\r\n\r\n    // Remove a candidate and reassign IDs of subsequent candidates\r\n    function removeCandidate(uint256 candidateId) public validCandidate(candidateId) {\r\n        delete candidates[candidateId];  // Remove the candidate\r\n\r\n        // Shift remaining candidates' IDs down\r\n        for (uint256 i = candidateId + 1; i <= candidatesCount; i++) {\r\n            candidates[i - 1] = candidates[i];  // Shift each candidate's data to the previous ID\r\n            delete candidates[i];  // Remove the original data at the old ID\r\n        }\r\n        candidatesCount--;\r\n    }\r\n\r\n    // Vote for a candidate\r\n    function vote(uint256 _candidateId) public {\r\n        require(_candidateId > 0 && _candidateId <= candidatesCount, \"Invalid candidate ID\");\r\n        candidates[_candidateId].voteCount++;\r\n        totalVotes++;\r\n    }\r\n\r\n    // Get vote count for a candidate\r\n    function getVoteCount(uint256 candidateId) public view validCandidate(candidateId) returns (uint256) {\r\n        return candidates[candidateId].voteCount;\r\n    }\r\n\r\n    // Get total number of candidates\r\n    function getCandidatesCount() public view returns (uint256) {\r\n        return candidatesCount;\r\n    }\r\n\r\n    // Get total votes\r\n    function getTotalVotes() public view returns (uint256) {\r\n        return totalVotes;\r\n    }\r\n\r\n    // Get candidate by ID\r\n    function getCandidate(uint256 candidateId) public view validCandidate(candidateId) returns (string memory, uint256) {\r\n        Candidate memory candidate = candidates[candidateId];\r\n        return (candidate.name, candidate.voteCount);\r\n    }\r\n}\r\n",
  "sourcePath": "C:\\Users\\isafw\\Coding no backup\\Git\\BlockChain\\Truffle\\contracts\\Voting.sol",
  "compiler": {
    "name": "solc",
    "version": "0.8.0+commit.c7dfd78e.Emscripten.clang"
  },
  "schemaVersion": "3.4.16",
  "updatedAt": "2024-12-13T14:08:14.568Z",
  "networkType": "ethereum",
  "devdoc": {
    "kind": "dev",
    "methods": {},
    "version": 1
  },
  "userdoc": {
    "kind": "user",
    "methods": {},
    "version": 1
  }
}