{
  "contractName": "Voting",
  "abi": [
    {
      "inputs": [
        {
          "internalType": "uint256",
          "name": "",
          "type": "uint256"
        }
      ],
      "name": "candidates",
      "outputs": [
        {
          "internalType": "string",
          "name": "name",
          "type": "string"
        },
        {
          "internalType": "uint256",
          "name": "voteCount",
          "type": "uint256"
        },
        {
          "internalType": "bool",
          "name": "exists",
          "type": "bool"
        }
      ],
      "stateMutability": "view",
      "type": "function",
      "constant": true
    },
    {
      "inputs": [],
      "name": "candidatesCount",
      "outputs": [
        {
          "internalType": "uint256",
          "name": "",
          "type": "uint256"
        }
      ],
      "stateMutability": "view",
      "type": "function",
      "constant": true
    },
    {
      "inputs": [
        {
          "internalType": "uint256",
          "name": "",
          "type": "uint256"
        }
      ],
      "name": "hasVoted",
      "outputs": [
        {
          "internalType": "bool",
          "name": "",
          "type": "bool"
        }
      ],
      "stateMutability": "view",
      "type": "function",
      "constant": true
    },
    {
      "inputs": [],
      "name": "totalVotes",
      "outputs": [
        {
          "internalType": "uint256",
          "name": "",
          "type": "uint256"
        }
      ],
      "stateMutability": "view",
      "type": "function",
      "constant": true
    },
    {
      "inputs": [
        {
          "internalType": "uint256",
          "name": "",
          "type": "uint256"
        }
      ],
      "name": "voters",
      "outputs": [
        {
          "internalType": "string",
          "name": "fullName",
          "type": "string"
        },
        {
          "internalType": "string",
          "name": "adhaarCard",
          "type": "string"
        },
        {
          "internalType": "string",
          "name": "username",
          "type": "string"
        },
        {
          "internalType": "string",
          "name": "password",
          "type": "string"
        },
        {
          "internalType": "bool",
          "name": "exists",
          "type": "bool"
        }
      ],
      "stateMutability": "view",
      "type": "function",
      "constant": true
    },
    {
      "inputs": [
        {
          "internalType": "string",
          "name": "_name",
          "type": "string"
        },
        {
          "internalType": "string",
          "name": "_secretKey",
          "type": "string"
        }
      ],
      "name": "addCandidate",
      "outputs": [],
      "stateMutability": "nonpayable",
      "type": "function"
    },
    {
      "inputs": [
        {
          "internalType": "uint256",
          "name": "candidateId",
          "type": "uint256"
        },
        {
          "internalType": "string",
          "name": "_secretKey",
          "type": "string"
        }
      ],
      "name": "removeCandidate",
      "outputs": [],
      "stateMutability": "nonpayable",
      "type": "function"
    },
    {
      "inputs": [
        {
          "internalType": "uint256",
          "name": "voterId",
          "type": "uint256"
        },
        {
          "internalType": "string",
          "name": "fullName",
          "type": "string"
        },
        {
          "internalType": "string",
          "name": "adhaarCard",
          "type": "string"
        },
        {
          "internalType": "string",
          "name": "username",
          "type": "string"
        },
        {
          "internalType": "string",
          "name": "password",
          "type": "string"
        }
      ],
      "name": "registerVoter",
      "outputs": [],
      "stateMutability": "nonpayable",
      "type": "function"
    },
    {
      "inputs": [
        {
          "internalType": "uint256",
          "name": "voterId",
          "type": "uint256"
        },
        {
          "internalType": "string",
          "name": "username",
          "type": "string"
        },
        {
          "internalType": "string",
          "name": "password",
          "type": "string"
        },
        {
          "internalType": "uint256",
          "name": "candidateId",
          "type": "uint256"
        }
      ],
      "name": "vote",
      "outputs": [],
      "stateMutability": "nonpayable",
      "type": "function"
    },
    {
      "inputs": [
        {
          "internalType": "uint256",
          "name": "candidateId",
          "type": "uint256"
        }
      ],
      "name": "getVoteCount",
      "outputs": [
        {
          "internalType": "uint256",
          "name": "",
          "type": "uint256"
        }
      ],
      "stateMutability": "view",
      "type": "function",
      "constant": true
    },
    {
      "inputs": [],
      "name": "getCandidatesCount",
      "outputs": [
        {
          "internalType": "uint256",
          "name": "",
          "type": "uint256"
        }
      ],
      "stateMutability": "view",
      "type": "function",
      "constant": true
    },
    {
      "inputs": [],
      "name": "getTotalVotes",
      "outputs": [
        {
          "internalType": "uint256",
          "name": "",
          "type": "uint256"
        }
      ],
      "stateMutability": "view",
      "type": "function",
      "constant": true
    },
    {
      "inputs": [
        {
          "internalType": "uint256",
          "name": "candidateId",
          "type": "uint256"
        }
      ],
      "name": "getCandidate",
      "outputs": [
        {
          "internalType": "string",
          "name": "",
          "type": "string"
        },
        {
          "internalType": "uint256",
          "name": "",
          "type": "uint256"
        }
      ],
      "stateMutability": "view",
      "type": "function",
      "constant": true
    }
  ],
  "bytecode": "0x608060405234801561001057600080fd5b50611d28806100206000396000f3fe608060405234801561001057600080fd5b50600436106100cf5760003560e01c806376c77e921161008c578063bb9aa28f11610066578063bb9aa28f14610215578063da58c7d914610233578063ecca031f14610267578063fbbe076b14610297576100cf565b806376c77e92146101ab5780639a0e7d66146101c7578063b2c2f2e8146101e5576100cf565b80630d15fd77146100d457806326541b56146100f25780632d35a8a21461010e5780633477ee2e1461012c57806335b8e8201461015e5780634aa3763e1461018f575b600080fd5b6100dc6102b3565b6040516100e991906119fe565b60405180910390f35b61010c600480360381019061010791906112de565b6102b9565b005b610116610415565b60405161012391906119fe565b60405180910390f35b6101466004803603810190610141919061134a565b61041b565b604051610155939291906118e0565b60405180910390f35b6101786004803603810190610173919061134a565b6104da565b6040516101869291906118b0565b60405180910390f35b6101a960048036038101906101a4919061149e565b610648565b005b6101c560048036038101906101c09190611373565b610915565b005b6101cf610bdb565b6040516101dc91906119fe565b60405180910390f35b6101ff60048036038101906101fa919061134a565b610be5565b60405161020c91906119fe565b60405180910390f35b61021d610c82565b60405161022a91906119fe565b60405180910390f35b61024d6004803603810190610248919061134a565b610c8c565b60405161025e959493929190611841565b60405180910390f35b610281600480360381019061027c919061134a565b610eef565b60405161028e9190611826565b60405180910390f35b6102b160048036038101906102ac91906113c7565b610f0f565b005b60055481565b6040518060400160405280600481526020017f74657374000000000000000000000000000000000000000000000000000000008152506040516020016102ff91906117f8565b604051602081830303815290604052805190602001208160405160200161032691906117f8565b604051602081830303815290604052805190602001201461037c576040517f08c379a0000000000000000000000000000000000000000000000000000000008152600401610373906119de565b60405180910390fd5b6004600081548092919061038f90611bf4565b919050555060405180606001604052808381526020016000815260200160011515815250600080600454815260200190815260200160002060008201518160000190805190602001906103e39291906110f1565b506020820151816001015560408201518160020160006101000a81548160ff0219169083151502179055509050505050565b60045481565b600060205280600052604060002060009150905080600001805461043e90611bc2565b80601f016020809104026020016040519081016040528092919081815260200182805461046a90611bc2565b80156104b75780601f1061048c576101008083540402835291602001916104b7565b820191906000526020600020905b81548152906001019060200180831161049a57829003601f168201915b5050505050908060010154908060020160009054906101000a900460ff16905083565b60606000826000811180156104f157506004548111155b801561051c575060008082815260200190815260200160002060020160009054906101000a900460ff165b61055b576040517f08c379a0000000000000000000000000000000000000000000000000000000008152600401610552906119be565b60405180910390fd5b600080600086815260200190815260200160002060405180606001604052908160008201805461058a90611bc2565b80601f01602080910402602001604051908101604052809291908181526020018280546105b690611bc2565b80156106035780601f106105d857610100808354040283529160200191610603565b820191906000526020600020905b8154815290600101906020018083116105e657829003601f168201915b50505050508152602001600182015481526020016002820160009054906101000a900460ff161515151581525050905080600001518160200151935093505050915091565b8060008111801561065b57506004548111155b8015610686575060008082815260200190815260200160002060020160009054906101000a900460ff165b6106c5576040517f08c379a00000000000000000000000000000000000000000000000000000000081526004016106bc906119be565b60405180910390fd5b8484846002600084815260200190815260200160002060040160009054906101000a900460ff1661072b576040517f08c379a00000000000000000000000000000000000000000000000000000000081526004016107229061199e565b60405180910390fd5b8160405160200161073c91906117f8565b6040516020818303038152906040528051906020012060026000858152602001908152602001600020600201604051602001610778919061180f565b604051602081830303815290604052805190602001201480156107fb5750806040516020016107a791906117f8565b60405160208183030381529060405280519060200120600260008581526020019081526020016000206003016040516020016107e3919061180f565b60405160208183030381529060405280519060200120145b61083a576040517f08c379a00000000000000000000000000000000000000000000000000000000081526004016108319061191e565b60405180910390fd5b876001600082815260200190815260200160002060009054906101000a900460ff161561089c576040517f08c379a00000000000000000000000000000000000000000000000000000000081526004016108939061193e565b60405180910390fd5b60008087815260200190815260200160002060010160008154809291906108c290611bf4565b919050555060018060008b815260200190815260200160002060006101000a81548160ff0219169083151502179055506005600081548092919061090590611bf4565b9190505550505050505050505050565b8160008111801561092857506004548111155b8015610953575060008082815260200190815260200160002060020160009054906101000a900460ff165b610992576040517f08c379a0000000000000000000000000000000000000000000000000000000008152600401610989906119be565b60405180910390fd5b6040518060400160405280600481526020017f74657374000000000000000000000000000000000000000000000000000000008152506040516020016109d891906117f8565b60405160208183030381529060405280519060200120826040516020016109ff91906117f8565b6040516020818303038152906040528051906020012014610a55576040517f08c379a0000000000000000000000000000000000000000000000000000000008152600401610a4c906119de565b60405180910390fd5b6000808481526020019081526020016000206001015460056000828254610a7c9190611b0c565b9250508190555060008084815260200190815260200160002060008082016000610aa69190611177565b60018201600090556002820160006101000a81549060ff021916905550506000600184610ad39190611ab6565b90505b6004548111610bbd57600080828152602001908152602001600020600080600184610b019190611b0c565b81526020019081526020016000206000820181600001908054610b2390611bc2565b610b2e9291906111b7565b50600182015481600101556002820160009054906101000a900460ff168160020160006101000a81548160ff02191690831515021790555090505060008082815260200190815260200160002060008082016000610b8c9190611177565b60018201600090556002820160006101000a81549060ff021916905550508080610bb590611bf4565b915050610ad6565b5060046000815480929190610bd190611b98565b9190505550505050565b6000600554905090565b600081600081118015610bfa57506004548111155b8015610c25575060008082815260200190815260200160002060020160009054906101000a900460ff165b610c64576040517f08c379a0000000000000000000000000000000000000000000000000000000008152600401610c5b906119be565b60405180910390fd5b60008084815260200190815260200160002060010154915050919050565b6000600454905090565b6002602052806000526040600020600091509050806000018054610caf90611bc2565b80601f0160208091040260200160405190810160405280929190818152602001828054610cdb90611bc2565b8015610d285780601f10610cfd57610100808354040283529160200191610d28565b820191906000526020600020905b815481529060010190602001808311610d0b57829003601f168201915b505050505090806001018054610d3d90611bc2565b80601f0160208091040260200160405190810160405280929190818152602001828054610d6990611bc2565b8015610db65780601f10610d8b57610100808354040283529160200191610db6565b820191906000526020600020905b815481529060010190602001808311610d9957829003601f168201915b505050505090806002018054610dcb90611bc2565b80601f0160208091040260200160405190810160405280929190818152602001828054610df790611bc2565b8015610e445780601f10610e1957610100808354040283529160200191610e44565b820191906000526020600020905b815481529060010190602001808311610e2757829003601f168201915b505050505090806003018054610e5990611bc2565b80601f0160208091040260200160405190810160405280929190818152602001828054610e8590611bc2565b8015610ed25780601f10610ea757610100808354040283529160200191610ed2565b820191906000526020600020905b815481529060010190602001808311610eb557829003601f168201915b5050505050908060040160009054906101000a900460ff16905085565b60016020528060005260406000206000915054906101000a900460ff1681565b6002600086815260200190815260200160002060040160009054906101000a900460ff1615610f73576040517f08c379a0000000000000000000000000000000000000000000000000000000008152600401610f6a9061195e565b60405180910390fd5b600382604051610f8391906117f8565b908152602001604051809103902060009054906101000a900460ff1615610fdf576040517f08c379a0000000000000000000000000000000000000000000000000000000008152600401610fd69061197e565b60405180910390fd5b6040518060a00160405280858152602001848152602001838152602001828152602001600115158152506002600087815260200190815260200160002060008201518160000190805190602001906110389291906110f1565b5060208201518160010190805190602001906110559291906110f1565b5060408201518160020190805190602001906110729291906110f1565b50606082015181600301908051906020019061108f9291906110f1565b5060808201518160040160006101000a81548160ff02191690831515021790555090505060016003836040516110c591906117f8565b908152602001604051809103902060006101000a81548160ff0219169083151502179055505050505050565b8280546110fd90611bc2565b90600052602060002090601f01602090048101928261111f5760008555611166565b82601f1061113857805160ff1916838001178555611166565b82800160010185558215611166579182015b8281111561116557825182559160200191906001019061114a565b5b5090506111739190611244565b5090565b50805461118390611bc2565b6000825580601f1061119557506111b4565b601f0160209004906000526020600020908101906111b39190611244565b5b50565b8280546111c390611bc2565b90600052602060002090601f0160209004810192826111e55760008555611233565b82601f106111f65780548555611233565b8280016001018555821561123357600052602060002091601f016020900482015b82811115611232578254825591600101919060010190611217565b5b5090506112409190611244565b5090565b5b8082111561125d576000816000905550600101611245565b5090565b600061127461126f84611a4a565b611a19565b90508281526020810184848401111561128c57600080fd5b611297848285611b56565b509392505050565b600082601f8301126112b057600080fd5b81356112c0848260208601611261565b91505092915050565b6000813590506112d881611cdb565b92915050565b600080604083850312156112f157600080fd5b600083013567ffffffffffffffff81111561130b57600080fd5b6113178582860161129f565b925050602083013567ffffffffffffffff81111561133457600080fd5b6113408582860161129f565b9150509250929050565b60006020828403121561135c57600080fd5b600061136a848285016112c9565b91505092915050565b6000806040838503121561138657600080fd5b6000611394858286016112c9565b925050602083013567ffffffffffffffff8111156113b157600080fd5b6113bd8582860161129f565b9150509250929050565b600080600080600060a086880312156113df57600080fd5b60006113ed888289016112c9565b955050602086013567ffffffffffffffff81111561140a57600080fd5b6114168882890161129f565b945050604086013567ffffffffffffffff81111561143357600080fd5b61143f8882890161129f565b935050606086013567ffffffffffffffff81111561145c57600080fd5b6114688882890161129f565b925050608086013567ffffffffffffffff81111561148557600080fd5b6114918882890161129f565b9150509295509295909350565b600080600080608085870312156114b457600080fd5b60006114c2878288016112c9565b945050602085013567ffffffffffffffff8111156114df57600080fd5b6114eb8782880161129f565b935050604085013567ffffffffffffffff81111561150857600080fd5b6115148782880161129f565b9250506060611525878288016112c9565b91505092959194509250565b61153a81611b40565b82525050565b600061154b82611a8f565b6115558185611a9a565b9350611565818560208601611b65565b61156e81611cca565b840191505092915050565b600061158482611a8f565b61158e8185611aab565b935061159e818560208601611b65565b80840191505092915050565b600081546115b781611bc2565b6115c18186611aab565b945060018216600081146115dc57600181146115ed57611620565b60ff19831686528186019350611620565b6115f685611a7a565b60005b83811015611618578154818901526001820191506020810190506115f9565b838801955050505b50505092915050565b6000611636601c83611a9a565b91507f496e76616c696420757365726e616d65206f722070617373776f7264000000006000830152602082019050919050565b6000611676601c83611a9a565b91507f5468697320766f7465722068617320616c726561647920766f746564000000006000830152602082019050919050565b60006116b6601b83611a9a565b91507f566f74657220494420616c7265616479207265676973746572656400000000006000830152602082019050919050565b60006116f6601783611a9a565b91507f557365726e616d6520616c7265616479206578697374730000000000000000006000830152602082019050919050565b6000611736601483611a9a565b91507f566f74657220646f6573206e6f742065786973740000000000000000000000006000830152602082019050919050565b6000611776601483611a9a565b91507f496e76616c69642063616e6469646174652049440000000000000000000000006000830152602082019050919050565b60006117b6601283611a9a565b91507f496e76616c696420736563726574206b657900000000000000000000000000006000830152602082019050919050565b6117f281611b4c565b82525050565b60006118048284611579565b915081905092915050565b600061181b82846115aa565b915081905092915050565b600060208201905061183b6000830184611531565b92915050565b600060a082019050818103600083015261185b8188611540565b9050818103602083015261186f8187611540565b905081810360408301526118838186611540565b905081810360608301526118978185611540565b90506118a66080830184611531565b9695505050505050565b600060408201905081810360008301526118ca8185611540565b90506118d960208301846117e9565b9392505050565b600060608201905081810360008301526118fa8186611540565b905061190960208301856117e9565b6119166040830184611531565b949350505050565b6000602082019050818103600083015261193781611629565b9050919050565b6000602082019050818103600083015261195781611669565b9050919050565b60006020820190508181036000830152611977816116a9565b9050919050565b60006020820190508181036000830152611997816116e9565b9050919050565b600060208201905081810360008301526119b781611729565b9050919050565b600060208201905081810360008301526119d781611769565b9050919050565b600060208201905081810360008301526119f7816117a9565b9050919050565b6000602082019050611a1360008301846117e9565b92915050565b6000604051905081810181811067ffffffffffffffff82111715611a4057611a3f611c9b565b5b8060405250919050565b600067ffffffffffffffff821115611a6557611a64611c9b565b5b601f19601f8301169050602081019050919050565b60008190508160005260206000209050919050565b600081519050919050565b600082825260208201905092915050565b600081905092915050565b6000611ac182611b4c565b9150611acc83611b4c565b9250827fffffffffffffffffffffffffffffffffffffffffffffffffffffffffffffffff03821115611b0157611b00611c3d565b5b828201905092915050565b6000611b1782611b4c565b9150611b2283611b4c565b925082821015611b3557611b34611c3d565b5b828203905092915050565b60008115159050919050565b6000819050919050565b82818337600083830152505050565b60005b83811015611b83578082015181840152602081019050611b68565b83811115611b92576000848401525b50505050565b6000611ba382611b4c565b91506000821415611bb757611bb6611c3d565b5b600182039050919050565b60006002820490506001821680611bda57607f821691505b60208210811415611bee57611bed611c6c565b5b50919050565b6000611bff82611b4c565b91507fffffffffffffffffffffffffffffffffffffffffffffffffffffffffffffffff821415611c3257611c31611c3d565b5b600182019050919050565b7f4e487b7100000000000000000000000000000000000000000000000000000000600052601160045260246000fd5b7f4e487b7100000000000000000000000000000000000000000000000000000000600052602260045260246000fd5b7f4e487b7100000000000000000000000000000000000000000000000000000000600052604160045260246000fd5b6000601f19601f8301169050919050565b611ce481611b4c565b8114611cef57600080fd5b5056fea26469706673582212208180c6a76137b88e5e5587ed3f56bb17707adc999ec5f3d6b198e67a6c6a079364736f6c63430008000033",
  "immutableReferences": {},
  "source": "// SPDX-License-Identifier: MIT\r\npragma solidity ^0.8.0;\r\n\r\ncontract Voting {\r\n    struct Candidate {\r\n        string name;\r\n        uint256 voteCount;\r\n        bool exists;\r\n    }\r\n\r\n    struct Voter {\r\n        string fullName;\r\n        string adhaarCard;\r\n        string username;\r\n        string password;\r\n        bool exists;\r\n    }\r\n\r\n    mapping(uint256 => Candidate) public candidates;\r\n    mapping(uint256 => bool) public hasVoted; // Track if a voter has already voted with their voter ID\r\n    mapping(uint256 => Voter) public voters; // Store voter information by voter ID\r\n    mapping(string => bool) private usernameExists; // Track registered usernames\r\n\r\n    uint256 public candidatesCount;\r\n    uint256 public totalVotes;\r\n    string private constant SECRET_KEY = \"test\";\r\n\r\n    modifier hasNotVoted(uint256 voterId) {\r\n        require(!hasVoted[voterId], \"This voter has already voted\");\r\n        _;\r\n    }\r\n\r\n    modifier validCandidate(uint256 candidateId) {\r\n        require(candidateId > 0 && candidateId <= candidatesCount && candidates[candidateId].exists, \"Invalid candidate ID\");\r\n        _;\r\n    }\r\n\r\n    modifier validVoter(uint256 voterId, string memory username, string memory password) {\r\n        require(voters[voterId].exists, \"Voter does not exist\");\r\n        require(\r\n            keccak256(abi.encodePacked(voters[voterId].username)) == keccak256(abi.encodePacked(username)) &&\r\n            keccak256(abi.encodePacked(voters[voterId].password)) == keccak256(abi.encodePacked(password)),\r\n            \"Invalid username or password\"\r\n        );\r\n        _;\r\n    }\r\n\r\n    // Add a candidate using the secret key\r\n    function addCandidate(string memory _name, string memory _secretKey) public {\r\n        require(keccak256(abi.encodePacked(_secretKey)) == keccak256(abi.encodePacked(SECRET_KEY)), \"Invalid secret key\");\r\n        candidatesCount++;\r\n        candidates[candidatesCount] = Candidate(_name, 0, true);\r\n    }\r\n\r\n    // Remove a candidate using the secret key\r\n    function removeCandidate(uint256 candidateId, string memory _secretKey) public validCandidate(candidateId) {\r\n        require(keccak256(abi.encodePacked(_secretKey)) == keccak256(abi.encodePacked(SECRET_KEY)), \"Invalid secret key\");\r\n\r\n        // Deduct the candidate's votes from the totalVotes\r\n        totalVotes -= candidates[candidateId].voteCount;\r\n\r\n        delete candidates[candidateId];\r\n\r\n        // Shift remaining candidates' IDs down\r\n        for (uint256 i = candidateId + 1; i <= candidatesCount; i++) {\r\n            candidates[i - 1] = candidates[i];\r\n            delete candidates[i];\r\n        }\r\n        candidatesCount--;\r\n    }\r\n\r\n    // Register a new voter\r\n    function registerVoter(\r\n        uint256 voterId,\r\n        string memory fullName,\r\n        string memory adhaarCard,\r\n        string memory username,\r\n        string memory password\r\n    ) public {\r\n        require(!voters[voterId].exists, \"Voter ID already registered\");\r\n        require(!usernameExists[username], \"Username already exists\"); // Check for unique username\r\n\r\n        voters[voterId] = Voter({\r\n            fullName: fullName,\r\n            adhaarCard: adhaarCard,\r\n            username: username,\r\n            password: password,\r\n            exists: true\r\n        });\r\n\r\n        usernameExists[username] = true; // Mark the username as registered\r\n    }\r\n\r\n    // Vote for a candidate\r\n    function vote(\r\n        uint256 voterId,\r\n        string memory username,\r\n        string memory password,\r\n        uint256 candidateId\r\n    ) public validCandidate(candidateId) validVoter(voterId, username, password) hasNotVoted(voterId) {\r\n        candidates[candidateId].voteCount++;\r\n        hasVoted[voterId] = true;\r\n        totalVotes++;\r\n    }\r\n\r\n    // Get vote count for a candidate\r\n    function getVoteCount(uint256 candidateId) public view validCandidate(candidateId) returns (uint256) {\r\n        return candidates[candidateId].voteCount;\r\n    }\r\n\r\n    // Get total number of candidates\r\n    function getCandidatesCount() public view returns (uint256) {\r\n        return candidatesCount;\r\n    }\r\n\r\n    // Get total votes\r\n    function getTotalVotes() public view returns (uint256) {\r\n        return totalVotes;\r\n    }\r\n\r\n    // Get candidate by ID\r\n    function getCandidate(uint256 candidateId) public view validCandidate(candidateId) returns (string memory, uint256) {\r\n        Candidate memory candidate = candidates[candidateId];\r\n        return (candidate.name, candidate.voteCount);\r\n    }\r\n}",
  "sourcePath": "C:\\Users\\vrtej\\OneDrive\\Desktop\\Blockchain\\truffle\\contracts\\Voting.sol",
  "compiler": {
    "name": "solc",
    "version": "0.8.0+commit.c7dfd78e.Emscripten.clang"
  },
  "schemaVersion": "3.4.16",
  "updatedAt": "2024-12-16T10:44:31.857Z",
  "networkType": "ethereum",
  "devdoc": {
    "kind": "dev",
    "methods": {},
    "version": 1
  },
  "userdoc": {
    "kind": "user",
    "methods": {},
    "version": 1
  }
}