{
  "contractName": "Voting",
  "abi": [
    {
      "inputs": [
        {
          "internalType": "uint256",
          "name": "",
          "type": "uint256"
        }
      ],
      "name": "candidates",
      "outputs": [
        {
          "internalType": "string",
          "name": "name",
          "type": "string"
        },
        {
          "internalType": "uint256",
          "name": "voteCount",
          "type": "uint256"
        },
        {
          "internalType": "bool",
          "name": "exists",
          "type": "bool"
        }
      ],
      "stateMutability": "view",
      "type": "function",
      "constant": true
    },
    {
      "inputs": [],
      "name": "candidatesCount",
      "outputs": [
        {
          "internalType": "uint256",
          "name": "",
          "type": "uint256"
        }
      ],
      "stateMutability": "view",
      "type": "function",
      "constant": true
    },
    {
      "inputs": [
        {
          "internalType": "uint256",
          "name": "",
          "type": "uint256"
        }
      ],
      "name": "hasVoted",
      "outputs": [
        {
          "internalType": "bool",
          "name": "",
          "type": "bool"
        }
      ],
      "stateMutability": "view",
      "type": "function",
      "constant": true
    },
    {
      "inputs": [],
      "name": "totalVotes",
      "outputs": [
        {
          "internalType": "uint256",
          "name": "",
          "type": "uint256"
        }
      ],
      "stateMutability": "view",
      "type": "function",
      "constant": true
    },
    {
      "inputs": [
        {
          "internalType": "uint256",
          "name": "",
          "type": "uint256"
        }
      ],
      "name": "voters",
      "outputs": [
        {
          "internalType": "string",
          "name": "fullName",
          "type": "string"
        },
        {
          "internalType": "string",
          "name": "adhaarCard",
          "type": "string"
        },
        {
          "internalType": "string",
          "name": "username",
          "type": "string"
        },
        {
          "internalType": "string",
          "name": "password",
          "type": "string"
        },
        {
          "internalType": "bool",
          "name": "exists",
          "type": "bool"
        }
      ],
      "stateMutability": "view",
      "type": "function",
      "constant": true
    },
    {
      "inputs": [
        {
          "internalType": "string",
          "name": "_name",
          "type": "string"
        },
        {
          "internalType": "string",
          "name": "_secretKey",
          "type": "string"
        }
      ],
      "name": "addCandidate",
      "outputs": [],
      "stateMutability": "nonpayable",
      "type": "function"
    },
    {
      "inputs": [
        {
          "internalType": "uint256",
          "name": "candidateId",
          "type": "uint256"
        },
        {
          "internalType": "string",
          "name": "_secretKey",
          "type": "string"
        }
      ],
      "name": "removeCandidate",
      "outputs": [],
      "stateMutability": "nonpayable",
      "type": "function"
    },
    {
      "inputs": [
        {
          "internalType": "uint256",
          "name": "voterId",
          "type": "uint256"
        },
        {
          "internalType": "string",
          "name": "fullName",
          "type": "string"
        },
        {
          "internalType": "string",
          "name": "adhaarCard",
          "type": "string"
        },
        {
          "internalType": "string",
          "name": "username",
          "type": "string"
        },
        {
          "internalType": "string",
          "name": "password",
          "type": "string"
        }
      ],
      "name": "registerVoter",
      "outputs": [],
      "stateMutability": "nonpayable",
      "type": "function"
    },
    {
      "inputs": [
        {
          "internalType": "uint256",
          "name": "voterId",
          "type": "uint256"
        },
        {
          "internalType": "string",
          "name": "username",
          "type": "string"
        },
        {
          "internalType": "string",
          "name": "password",
          "type": "string"
        },
        {
          "internalType": "uint256",
          "name": "candidateId",
          "type": "uint256"
        }
      ],
      "name": "vote",
      "outputs": [],
      "stateMutability": "nonpayable",
      "type": "function"
    },
    {
      "inputs": [
        {
          "internalType": "uint256",
          "name": "candidateId",
          "type": "uint256"
        }
      ],
      "name": "getVoteCount",
      "outputs": [
        {
          "internalType": "uint256",
          "name": "",
          "type": "uint256"
        }
      ],
      "stateMutability": "view",
      "type": "function",
      "constant": true
    },
    {
      "inputs": [],
      "name": "getCandidatesCount",
      "outputs": [
        {
          "internalType": "uint256",
          "name": "",
          "type": "uint256"
        }
      ],
      "stateMutability": "view",
      "type": "function",
      "constant": true
    },
    {
      "inputs": [],
      "name": "getTotalVotes",
      "outputs": [
        {
          "internalType": "uint256",
          "name": "",
          "type": "uint256"
        }
      ],
      "stateMutability": "view",
      "type": "function",
      "constant": true
    },
    {
      "inputs": [
        {
          "internalType": "uint256",
          "name": "candidateId",
          "type": "uint256"
        }
      ],
      "name": "getCandidate",
      "outputs": [
        {
          "internalType": "string",
          "name": "",
          "type": "string"
        },
        {
          "internalType": "uint256",
          "name": "",
          "type": "uint256"
        }
      ],
      "stateMutability": "view",
      "type": "function",
      "constant": true
    }
  ],
  "bytecode": "0x608060405234801561001057600080fd5b50611bf7806100206000396000f3fe608060405234801561001057600080fd5b50600436106100cf5760003560e01c806376c77e921161008c578063bb9aa28f11610066578063bb9aa28f14610215578063da58c7d914610233578063ecca031f14610267578063fbbe076b14610297576100cf565b806376c77e92146101ab5780639a0e7d66146101c7578063b2c2f2e8146101e5576100cf565b80630d15fd77146100d457806326541b56146100f25780632d35a8a21461010e5780633477ee2e1461012c57806335b8e8201461015e5780634aa3763e1461018f575b600080fd5b6100dc6102b3565b6040516100e991906118cd565b60405180910390f35b61010c6004803603810190610107919061120d565b6102b9565b005b610116610415565b60405161012391906118cd565b60405180910390f35b61014660048036038101906101419190611279565b61041b565b604051610155939291906117cf565b60405180910390f35b61017860048036038101906101739190611279565b6104da565b60405161018692919061179f565b60405180910390f35b6101a960048036038101906101a491906113cd565b610648565b005b6101c560048036038101906101c091906112a2565b610915565b005b6101cf610bad565b6040516101dc91906118cd565b60405180910390f35b6101ff60048036038101906101fa9190611279565b610bb7565b60405161020c91906118cd565b60405180910390f35b61021d610c54565b60405161022a91906118cd565b60405180910390f35b61024d60048036038101906102489190611279565b610c5e565b60405161025e959493929190611730565b60405180910390f35b610281600480360381019061027c9190611279565b610ec1565b60405161028e9190611715565b60405180910390f35b6102b160048036038101906102ac91906112f6565b610ee1565b005b60045481565b6040518060400160405280600481526020017f74657374000000000000000000000000000000000000000000000000000000008152506040516020016102ff91906116e7565b604051602081830303815290604052805190602001208160405160200161032691906116e7565b604051602081830303815290604052805190602001201461037c576040517f08c379a0000000000000000000000000000000000000000000000000000000008152600401610373906118ad565b60405180910390fd5b6003600081548092919061038f90611ac3565b919050555060405180606001604052808381526020016000815260200160011515815250600080600354815260200190815260200160002060008201518160000190805190602001906103e3929190611020565b506020820151816001015560408201518160020160006101000a81548160ff0219169083151502179055509050505050565b60035481565b600060205280600052604060002060009150905080600001805461043e90611a91565b80601f016020809104026020016040519081016040528092919081815260200182805461046a90611a91565b80156104b75780601f1061048c576101008083540402835291602001916104b7565b820191906000526020600020905b81548152906001019060200180831161049a57829003601f168201915b5050505050908060010154908060020160009054906101000a900460ff16905083565b60606000826000811180156104f157506003548111155b801561051c575060008082815260200190815260200160002060020160009054906101000a900460ff165b61055b576040517f08c379a00000000000000000000000000000000000000000000000000000000081526004016105529061188d565b60405180910390fd5b600080600086815260200190815260200160002060405180606001604052908160008201805461058a90611a91565b80601f01602080910402602001604051908101604052809291908181526020018280546105b690611a91565b80156106035780601f106105d857610100808354040283529160200191610603565b820191906000526020600020905b8154815290600101906020018083116105e657829003601f168201915b50505050508152602001600182015481526020016002820160009054906101000a900460ff161515151581525050905080600001518160200151935093505050915091565b8060008111801561065b57506003548111155b8015610686575060008082815260200190815260200160002060020160009054906101000a900460ff165b6106c5576040517f08c379a00000000000000000000000000000000000000000000000000000000081526004016106bc9061188d565b60405180910390fd5b8484846002600084815260200190815260200160002060040160009054906101000a900460ff1661072b576040517f08c379a00000000000000000000000000000000000000000000000000000000081526004016107229061186d565b60405180910390fd5b8160405160200161073c91906116e7565b604051602081830303815290604052805190602001206002600085815260200190815260200160002060020160405160200161077891906116fe565b604051602081830303815290604052805190602001201480156107fb5750806040516020016107a791906116e7565b60405160208183030381529060405280519060200120600260008581526020019081526020016000206003016040516020016107e391906116fe565b60405160208183030381529060405280519060200120145b61083a576040517f08c379a00000000000000000000000000000000000000000000000000000000081526004016108319061180d565b60405180910390fd5b876001600082815260200190815260200160002060009054906101000a900460ff161561089c576040517f08c379a00000000000000000000000000000000000000000000000000000000081526004016108939061182d565b60405180910390fd5b60008087815260200190815260200160002060010160008154809291906108c290611ac3565b919050555060018060008b815260200190815260200160002060006101000a81548160ff0219169083151502179055506004600081548092919061090590611ac3565b9190505550505050505050505050565b8160008111801561092857506003548111155b8015610953575060008082815260200190815260200160002060020160009054906101000a900460ff165b610992576040517f08c379a00000000000000000000000000000000000000000000000000000000081526004016109899061188d565b60405180910390fd5b6040518060400160405280600481526020017f74657374000000000000000000000000000000000000000000000000000000008152506040516020016109d891906116e7565b60405160208183030381529060405280519060200120826040516020016109ff91906116e7565b6040516020818303038152906040528051906020012014610a55576040517f08c379a0000000000000000000000000000000000000000000000000000000008152600401610a4c906118ad565b60405180910390fd5b60008084815260200190815260200160002060008082016000610a7891906110a6565b60018201600090556002820160006101000a81549060ff021916905550506000600184610aa59190611985565b90505b6003548111610b8f57600080828152602001908152602001600020600080600184610ad391906119db565b81526020019081526020016000206000820181600001908054610af590611a91565b610b009291906110e6565b50600182015481600101556002820160009054906101000a900460ff168160020160006101000a81548160ff02191690831515021790555090505060008082815260200190815260200160002060008082016000610b5e91906110a6565b60018201600090556002820160006101000a81549060ff021916905550508080610b8790611ac3565b915050610aa8565b5060036000815480929190610ba390611a67565b9190505550505050565b6000600454905090565b600081600081118015610bcc57506003548111155b8015610bf7575060008082815260200190815260200160002060020160009054906101000a900460ff165b610c36576040517f08c379a0000000000000000000000000000000000000000000000000000000008152600401610c2d9061188d565b60405180910390fd5b60008084815260200190815260200160002060010154915050919050565b6000600354905090565b6002602052806000526040600020600091509050806000018054610c8190611a91565b80601f0160208091040260200160405190810160405280929190818152602001828054610cad90611a91565b8015610cfa5780601f10610ccf57610100808354040283529160200191610cfa565b820191906000526020600020905b815481529060010190602001808311610cdd57829003601f168201915b505050505090806001018054610d0f90611a91565b80601f0160208091040260200160405190810160405280929190818152602001828054610d3b90611a91565b8015610d885780601f10610d5d57610100808354040283529160200191610d88565b820191906000526020600020905b815481529060010190602001808311610d6b57829003601f168201915b505050505090806002018054610d9d90611a91565b80601f0160208091040260200160405190810160405280929190818152602001828054610dc990611a91565b8015610e165780601f10610deb57610100808354040283529160200191610e16565b820191906000526020600020905b815481529060010190602001808311610df957829003601f168201915b505050505090806003018054610e2b90611a91565b80601f0160208091040260200160405190810160405280929190818152602001828054610e5790611a91565b8015610ea45780601f10610e7957610100808354040283529160200191610ea4565b820191906000526020600020905b815481529060010190602001808311610e8757829003601f168201915b5050505050908060040160009054906101000a900460ff16905085565b60016020528060005260406000206000915054906101000a900460ff1681565b6002600086815260200190815260200160002060040160009054906101000a900460ff1615610f45576040517f08c379a0000000000000000000000000000000000000000000000000000000008152600401610f3c9061184d565b60405180910390fd5b6040518060a0016040528085815260200184815260200183815260200182815260200160011515815250600260008781526020019081526020016000206000820151816000019080519060200190610f9e929190611020565b506020820151816001019080519060200190610fbb929190611020565b506040820151816002019080519060200190610fd8929190611020565b506060820151816003019080519060200190610ff5929190611020565b5060808201518160040160006101000a81548160ff0219169083151502179055509050505050505050565b82805461102c90611a91565b90600052602060002090601f01602090048101928261104e5760008555611095565b82601f1061106757805160ff1916838001178555611095565b82800160010185558215611095579182015b82811115611094578251825591602001919060010190611079565b5b5090506110a29190611173565b5090565b5080546110b290611a91565b6000825580601f106110c457506110e3565b601f0160209004906000526020600020908101906110e29190611173565b5b50565b8280546110f290611a91565b90600052602060002090601f0160209004810192826111145760008555611162565b82601f106111255780548555611162565b8280016001018555821561116257600052602060002091601f016020900482015b82811115611161578254825591600101919060010190611146565b5b50905061116f9190611173565b5090565b5b8082111561118c576000816000905550600101611174565b5090565b60006111a361119e84611919565b6118e8565b9050828152602081018484840111156111bb57600080fd5b6111c6848285611a25565b509392505050565b600082601f8301126111df57600080fd5b81356111ef848260208601611190565b91505092915050565b60008135905061120781611baa565b92915050565b6000806040838503121561122057600080fd5b600083013567ffffffffffffffff81111561123a57600080fd5b611246858286016111ce565b925050602083013567ffffffffffffffff81111561126357600080fd5b61126f858286016111ce565b9150509250929050565b60006020828403121561128b57600080fd5b6000611299848285016111f8565b91505092915050565b600080604083850312156112b557600080fd5b60006112c3858286016111f8565b925050602083013567ffffffffffffffff8111156112e057600080fd5b6112ec858286016111ce565b9150509250929050565b600080600080600060a0868803121561130e57600080fd5b600061131c888289016111f8565b955050602086013567ffffffffffffffff81111561133957600080fd5b611345888289016111ce565b945050604086013567ffffffffffffffff81111561136257600080fd5b61136e888289016111ce565b935050606086013567ffffffffffffffff81111561138b57600080fd5b611397888289016111ce565b925050608086013567ffffffffffffffff8111156113b457600080fd5b6113c0888289016111ce565b9150509295509295909350565b600080600080608085870312156113e357600080fd5b60006113f1878288016111f8565b945050602085013567ffffffffffffffff81111561140e57600080fd5b61141a878288016111ce565b935050604085013567ffffffffffffffff81111561143757600080fd5b611443878288016111ce565b9250506060611454878288016111f8565b91505092959194509250565b61146981611a0f565b82525050565b600061147a8261195e565b6114848185611969565b9350611494818560208601611a34565b61149d81611b99565b840191505092915050565b60006114b38261195e565b6114bd818561197a565b93506114cd818560208601611a34565b80840191505092915050565b600081546114e681611a91565b6114f0818661197a565b9450600182166000811461150b576001811461151c5761154f565b60ff1983168652818601935061154f565b61152585611949565b60005b8381101561154757815481890152600182019150602081019050611528565b838801955050505b50505092915050565b6000611565601c83611969565b91507f496e76616c696420757365726e616d65206f722070617373776f7264000000006000830152602082019050919050565b60006115a5601c83611969565b91507f5468697320766f7465722068617320616c726561647920766f746564000000006000830152602082019050919050565b60006115e5601b83611969565b91507f566f74657220494420616c7265616479207265676973746572656400000000006000830152602082019050919050565b6000611625601483611969565b91507f566f74657220646f6573206e6f742065786973740000000000000000000000006000830152602082019050919050565b6000611665601483611969565b91507f496e76616c69642063616e6469646174652049440000000000000000000000006000830152602082019050919050565b60006116a5601283611969565b91507f496e76616c696420736563726574206b657900000000000000000000000000006000830152602082019050919050565b6116e181611a1b565b82525050565b60006116f382846114a8565b915081905092915050565b600061170a82846114d9565b915081905092915050565b600060208201905061172a6000830184611460565b92915050565b600060a082019050818103600083015261174a818861146f565b9050818103602083015261175e818761146f565b90508181036040830152611772818661146f565b90508181036060830152611786818561146f565b90506117956080830184611460565b9695505050505050565b600060408201905081810360008301526117b9818561146f565b90506117c860208301846116d8565b9392505050565b600060608201905081810360008301526117e9818661146f565b90506117f860208301856116d8565b6118056040830184611460565b949350505050565b6000602082019050818103600083015261182681611558565b9050919050565b6000602082019050818103600083015261184681611598565b9050919050565b60006020820190508181036000830152611866816115d8565b9050919050565b6000602082019050818103600083015261188681611618565b9050919050565b600060208201905081810360008301526118a681611658565b9050919050565b600060208201905081810360008301526118c681611698565b9050919050565b60006020820190506118e260008301846116d8565b92915050565b6000604051905081810181811067ffffffffffffffff8211171561190f5761190e611b6a565b5b8060405250919050565b600067ffffffffffffffff82111561193457611933611b6a565b5b601f19601f8301169050602081019050919050565b60008190508160005260206000209050919050565b600081519050919050565b600082825260208201905092915050565b600081905092915050565b600061199082611a1b565b915061199b83611a1b565b9250827fffffffffffffffffffffffffffffffffffffffffffffffffffffffffffffffff038211156119d0576119cf611b0c565b5b828201905092915050565b60006119e682611a1b565b91506119f183611a1b565b925082821015611a0457611a03611b0c565b5b828203905092915050565b60008115159050919050565b6000819050919050565b82818337600083830152505050565b60005b83811015611a52578082015181840152602081019050611a37565b83811115611a61576000848401525b50505050565b6000611a7282611a1b565b91506000821415611a8657611a85611b0c565b5b600182039050919050565b60006002820490506001821680611aa957607f821691505b60208210811415611abd57611abc611b3b565b5b50919050565b6000611ace82611a1b565b91507fffffffffffffffffffffffffffffffffffffffffffffffffffffffffffffffff821415611b0157611b00611b0c565b5b600182019050919050565b7f4e487b7100000000000000000000000000000000000000000000000000000000600052601160045260246000fd5b7f4e487b7100000000000000000000000000000000000000000000000000000000600052602260045260246000fd5b7f4e487b7100000000000000000000000000000000000000000000000000000000600052604160045260246000fd5b6000601f19601f8301169050919050565b611bb381611a1b565b8114611bbe57600080fd5b5056fea2646970667358221220bbdaa5fcabd4c9b1bbd55b9e499207515464b0b2a9de7fdc0ab7f08cad73626864736f6c63430008000033",
  "immutableReferences": {},
  "source": "// SPDX-License-Identifier: MIT\r\npragma solidity ^0.8.0;\r\n\r\ncontract Voting {\r\n    struct Candidate {\r\n        string name;\r\n        uint256 voteCount;\r\n        bool exists;\r\n    }\r\n\r\n    struct Voter {\r\n        string fullName;\r\n        string adhaarCard;\r\n        string username;\r\n        string password;\r\n        bool exists;\r\n    }\r\n\r\n    mapping(uint256 => Candidate) public candidates;\r\n    mapping(uint256 => bool) public hasVoted; // Track if a voter has already voted with their voter ID\r\n    mapping(uint256 => Voter) public voters; // Store voter information by voter ID\r\n\r\n    uint256 public candidatesCount;\r\n    uint256 public totalVotes;\r\n    string private constant SECRET_KEY = \"test\";\r\n\r\n    modifier hasNotVoted(uint256 voterId) {\r\n        require(!hasVoted[voterId], \"This voter has already voted\");\r\n        _;\r\n    }\r\n\r\n    modifier validCandidate(uint256 candidateId) {\r\n        require(candidateId > 0 && candidateId <= candidatesCount && candidates[candidateId].exists, \"Invalid candidate ID\");\r\n        _;\r\n    }\r\n\r\n    modifier validVoter(uint256 voterId, string memory username, string memory password) {\r\n        require(voters[voterId].exists, \"Voter does not exist\");\r\n        require(\r\n            keccak256(abi.encodePacked(voters[voterId].username)) == keccak256(abi.encodePacked(username)) &&\r\n            keccak256(abi.encodePacked(voters[voterId].password)) == keccak256(abi.encodePacked(password)),\r\n            \"Invalid username or password\"\r\n        );\r\n        _;\r\n    }\r\n\r\n    // Add a candidate using the secret key\r\n    function addCandidate(string memory _name, string memory _secretKey) public {\r\n        require(keccak256(abi.encodePacked(_secretKey)) == keccak256(abi.encodePacked(SECRET_KEY)), \"Invalid secret key\");\r\n        candidatesCount++;\r\n        candidates[candidatesCount] = Candidate(_name, 0, true);\r\n    }\r\n\r\n    // Remove a candidate using the secret key\r\n    function removeCandidate(uint256 candidateId, string memory _secretKey) public validCandidate(candidateId) {\r\n        require(keccak256(abi.encodePacked(_secretKey)) == keccak256(abi.encodePacked(SECRET_KEY)), \"Invalid secret key\");\r\n\r\n        delete candidates[candidateId];\r\n\r\n        // Shift remaining candidates' IDs down\r\n        for (uint256 i = candidateId + 1; i <= candidatesCount; i++) {\r\n            candidates[i - 1] = candidates[i];\r\n            delete candidates[i];\r\n        }\r\n        candidatesCount--;\r\n    }\r\n\r\n    // Register a new voter\r\n    function registerVoter(\r\n        uint256 voterId,\r\n        string memory fullName,\r\n        string memory adhaarCard,\r\n        string memory username,\r\n        string memory password\r\n    ) public {\r\n        require(!voters[voterId].exists, \"Voter ID already registered\");\r\n\r\n        voters[voterId] = Voter({\r\n            fullName: fullName,\r\n            adhaarCard: adhaarCard,\r\n            username: username,\r\n            password: password,\r\n            exists: true\r\n        });\r\n    }\r\n\r\n    // Vote for a candidate\r\n    function vote(\r\n        uint256 voterId,\r\n        string memory username,\r\n        string memory password,\r\n        uint256 candidateId\r\n    ) public validCandidate(candidateId) validVoter(voterId, username, password) hasNotVoted(voterId) {\r\n        candidates[candidateId].voteCount++;\r\n        hasVoted[voterId] = true;\r\n        totalVotes++;\r\n    }\r\n\r\n    // Get vote count for a candidate\r\n    function getVoteCount(uint256 candidateId) public view validCandidate(candidateId) returns (uint256) {\r\n        return candidates[candidateId].voteCount;\r\n    }\r\n\r\n    // Get total number of candidates\r\n    function getCandidatesCount() public view returns (uint256) {\r\n        return candidatesCount;\r\n    }\r\n\r\n    // Get total votes\r\n    function getTotalVotes() public view returns (uint256) {\r\n        return totalVotes;\r\n    }\r\n\r\n    // Get candidate by ID\r\n    function getCandidate(uint256 candidateId) public view validCandidate(candidateId) returns (string memory, uint256) {\r\n        Candidate memory candidate = candidates[candidateId];\r\n        return (candidate.name, candidate.voteCount);\r\n    }\r\n}",
  "sourcePath": "C:\\Users\\isafw\\Coding no backup\\Git\\BlockChain\\Truffle\\contracts\\Voting.sol",
  "compiler": {
    "name": "solc",
    "version": "0.8.0+commit.c7dfd78e.Emscripten.clang"
  },
  "schemaVersion": "3.4.16",
  "updatedAt": "2024-12-14T15:19:41.623Z",
  "networkType": "ethereum",
  "devdoc": {
    "kind": "dev",
    "methods": {},
    "version": 1
  },
  "userdoc": {
    "kind": "user",
    "methods": {},
    "version": 1
  }
}