{
  "contractName": "Voting",
  "abi": [
    {
      "anonymous": false,
      "inputs": [
        {
          "indexed": true,
          "internalType": "uint256",
          "name": "candidateId",
          "type": "uint256"
        },
        {
          "indexed": false,
          "internalType": "string",
          "name": "name",
          "type": "string"
        }
      ],
      "name": "CandidateAdded",
      "type": "event"
    },
    {
      "anonymous": false,
      "inputs": [
        {
          "indexed": true,
          "internalType": "uint256",
          "name": "candidateId",
          "type": "uint256"
        }
      ],
      "name": "CandidateRemoved",
      "type": "event"
    },
    {
      "anonymous": false,
      "inputs": [
        {
          "indexed": true,
          "internalType": "address",
          "name": "voter",
          "type": "address"
        },
        {
          "indexed": true,
          "internalType": "uint256",
          "name": "candidateId",
          "type": "uint256"
        }
      ],
      "name": "Voted",
      "type": "event"
    },
    {
      "inputs": [
        {
          "internalType": "uint256",
          "name": "",
          "type": "uint256"
        }
      ],
      "name": "candidates",
      "outputs": [
        {
          "internalType": "uint256",
          "name": "id",
          "type": "uint256"
        },
        {
          "internalType": "string",
          "name": "name",
          "type": "string"
        },
        {
          "internalType": "uint256",
          "name": "voteCount",
          "type": "uint256"
        }
      ],
      "stateMutability": "view",
      "type": "function"
    },
    {
      "inputs": [],
      "name": "candidatesCount",
      "outputs": [
        {
          "internalType": "uint256",
          "name": "",
          "type": "uint256"
        }
      ],
      "stateMutability": "view",
      "type": "function"
    },
    {
      "inputs": [],
      "name": "totalVotes",
      "outputs": [
        {
          "internalType": "uint256",
          "name": "",
          "type": "uint256"
        }
      ],
      "stateMutability": "view",
      "type": "function"
    },
    {
      "inputs": [
        {
          "internalType": "address",
          "name": "",
          "type": "address"
        }
      ],
      "name": "voters",
      "outputs": [
        {
          "internalType": "bool",
          "name": "",
          "type": "bool"
        }
      ],
      "stateMutability": "view",
      "type": "function"
    },
    {
      "inputs": [
        {
          "internalType": "string",
          "name": "_name",
          "type": "string"
        }
      ],
      "name": "addCandidate",
      "outputs": [],
      "stateMutability": "nonpayable",
      "type": "function"
    },
    {
      "inputs": [
        {
          "internalType": "uint256",
          "name": "_candidateId",
          "type": "uint256"
        }
      ],
      "name": "removeCandidate",
      "outputs": [],
      "stateMutability": "nonpayable",
      "type": "function"
    },
    {
      "inputs": [
        {
          "internalType": "uint256",
          "name": "_candidateId",
          "type": "uint256"
        }
      ],
      "name": "vote",
      "outputs": [],
      "stateMutability": "nonpayable",
      "type": "function"
    },
    {
      "inputs": [
        {
          "internalType": "uint256",
          "name": "_candidateId",
          "type": "uint256"
        }
      ],
      "name": "getVoteCount",
      "outputs": [
        {
          "internalType": "uint256",
          "name": "",
          "type": "uint256"
        }
      ],
      "stateMutability": "view",
      "type": "function"
    },
    {
      "inputs": [
        {
          "internalType": "uint256",
          "name": "_candidateId",
          "type": "uint256"
        }
      ],
      "name": "getCandidate",
      "outputs": [
        {
          "internalType": "string",
          "name": "name",
          "type": "string"
        },
        {
          "internalType": "uint256",
          "name": "voteCount",
          "type": "uint256"
        }
      ],
      "stateMutability": "view",
      "type": "function"
    },
    {
      "inputs": [],
      "name": "getCandidatesCount",
      "outputs": [
        {
          "internalType": "uint256",
          "name": "",
          "type": "uint256"
        }
      ],
      "stateMutability": "view",
      "type": "function"
    },
    {
      "inputs": [],
      "name": "getTotalVotes",
      "outputs": [
        {
          "internalType": "uint256",
          "name": "",
          "type": "uint256"
        }
      ],
      "stateMutability": "view",
      "type": "function"
    }
  ],
  "bytecode": "0x608060405234801561001057600080fd5b50611004806100206000396000f3fe608060405234801561001057600080fd5b50600436106100a95760003560e01c806335b8e8201161007157806335b8e82014610154578063462e91ec146101855780639a0e7d66146101a1578063a3ec138d146101bf578063b2c2f2e8146101ef578063bb9aa28f1461021f576100a9565b80630121b93f146100ae57806309e9d7e2146100ca5780630d15fd77146100e65780632d35a8a2146101045780633477ee2e14610122575b600080fd5b6100c860048036038101906100c39190610a94565b61023d565b005b6100e460048036038101906100df9190610a94565b6103fe565b005b6100ee610520565b6040516100fb9190610d27565b60405180910390f35b61010c610526565b6040516101199190610d27565b60405180910390f35b61013c60048036038101906101379190610a94565b61052c565b60405161014b93929190610d42565b60405180910390f35b61016e60048036038101906101699190610a94565b6105de565b60405161017c929190610c77565b60405180910390f35b61019f600480360381019061019a9190610a53565b610710565b005b6101a961080f565b6040516101b69190610d27565b60405180910390f35b6101d960048036038101906101d49190610a2a565b610819565b6040516101e69190610c3a565b60405180910390f35b61020960048036038101906102049190610a94565b610839565b6040516102169190610d27565b60405180910390f35b6102276108ab565b6040516102349190610d27565b60405180910390f35b8060008111801561025057506002548111155b61028f576040517f08c379a000000000000000000000000000000000000000000000000000000000815260040161028690610d07565b60405180910390fd5b600160003373ffffffffffffffffffffffffffffffffffffffff1673ffffffffffffffffffffffffffffffffffffffff16815260200190815260200160002060009054906101000a900460ff161561031c576040517f08c379a000000000000000000000000000000000000000000000000000000000815260040161031390610ca7565b60405180910390fd5b60018060003373ffffffffffffffffffffffffffffffffffffffff1673ffffffffffffffffffffffffffffffffffffffff16815260200190815260200160002060006101000a81548160ff021916908315150217905550600080838152602001908152602001600020600201600081548092919061039990610eb9565b9190505550600360008154809291906103b190610eb9565b9190505550813373ffffffffffffffffffffffffffffffffffffffff167f4d99b957a2bc29a30ebd96a7be8e68fe50a3c701db28a91436490b7d53870ca460405160405180910390a35050565b8060008111801561041157506002548111155b610450576040517f08c379a000000000000000000000000000000000000000000000000000000000815260040161044790610d07565b60405180910390fd5b60008060008481526020019081526020016000209050600081600101805461047790610e87565b9050116104b9576040517f08c379a00000000000000000000000000000000000000000000000000000000081526004016104b090610ce7565b60405180910390fd5b6000808481526020019081526020016000206000808201600090556001820160006104e491906108b5565b60028201600090555050827f294c5a9bc8a39e6e06502bc8da429980f6c7b0990d75b682c12cb8705e3ace8560405160405180910390a2505050565b60035481565b60025481565b600060205280600052604060002060009150905080600001549080600101805461055590610e87565b80601f016020809104026020016040519081016040528092919081815260200182805461058190610e87565b80156105ce5780601f106105a3576101008083540402835291602001916105ce565b820191906000526020600020905b8154815290600101906020018083116105b157829003601f168201915b5050505050908060020154905083565b60606000826000811180156105f557506002548111155b610634576040517f08c379a000000000000000000000000000000000000000000000000000000000815260040161062b90610d07565b60405180910390fd5b60008060008681526020019081526020016000206040518060600160405290816000820154815260200160018201805461066d90610e87565b80601f016020809104026020016040519081016040528092919081815260200182805461069990610e87565b80156106e65780601f106106bb576101008083540402835291602001916106e6565b820191906000526020600020905b8154815290600101906020018083116106c957829003601f168201915b50505050508152602001600282015481525050905080602001518160400151935093505050915091565b6000815111610754576040517f08c379a000000000000000000000000000000000000000000000000000000000815260040161074b90610cc7565b60405180910390fd5b6002600081548092919061076790610eb9565b919050555060405180606001604052806002548152602001828152602001600081525060008060025481526020019081526020016000206000820151816000015560208201518160010190805190602001906107c49291906108f5565b50604082015181600201559050506002547fe83b2a43e7e82d975c8a0a6d2f045153c869e111136a34d1889ab7b598e396a3826040516108049190610c55565b60405180910390a250565b6000600354905090565b60016020528060005260406000206000915054906101000a900460ff1681565b60008160008111801561084e57506002548111155b61088d576040517f08c379a000000000000000000000000000000000000000000000000000000000815260040161088490610d07565b60405180910390fd5b60008084815260200190815260200160002060020154915050919050565b6000600254905090565b5080546108c190610e87565b6000825580601f106108d357506108f2565b601f0160209004906000526020600020908101906108f1919061097b565b5b50565b82805461090190610e87565b90600052602060002090601f016020900481019282610923576000855561096a565b82601f1061093c57805160ff191683800117855561096a565b8280016001018555821561096a579182015b8281111561096957825182559160200191906001019061094e565b5b509050610977919061097b565b5090565b5b8082111561099457600081600090555060010161097c565b5090565b60006109ab6109a684610db1565b610d80565b9050828152602081018484840111156109c357600080fd5b6109ce848285610e45565b509392505050565b6000813590506109e581610fa0565b92915050565b600082601f8301126109fc57600080fd5b8135610a0c848260208601610998565b91505092915050565b600081359050610a2481610fb7565b92915050565b600060208284031215610a3c57600080fd5b6000610a4a848285016109d6565b91505092915050565b600060208284031215610a6557600080fd5b600082013567ffffffffffffffff811115610a7f57600080fd5b610a8b848285016109eb565b91505092915050565b600060208284031215610aa657600080fd5b6000610ab484828501610a15565b91505092915050565b610ac681610e0f565b82525050565b6000610ad782610de1565b610ae18185610dec565b9350610af1818560208601610e54565b610afa81610f8f565b840191505092915050565b6000610b12601783610dec565b91507f596f75206861766520616c726561647920766f7465642e0000000000000000006000830152602082019050919050565b6000610b52602183610dec565b91507f43616e646964617465206e616d65206d757374206265206e6f6e2d656d70747960008301527f2e000000000000000000000000000000000000000000000000000000000000006020830152604082019050919050565b6000610bb8601983610dec565b91507f43616e64696461746520646f6573206e6f742065786973742e000000000000006000830152602082019050919050565b6000610bf8601583610dec565b91507f496e76616c69642063616e6469646174652049442e00000000000000000000006000830152602082019050919050565b610c3481610e3b565b82525050565b6000602082019050610c4f6000830184610abd565b92915050565b60006020820190508181036000830152610c6f8184610acc565b905092915050565b60006040820190508181036000830152610c918185610acc565b9050610ca06020830184610c2b565b9392505050565b60006020820190508181036000830152610cc081610b05565b9050919050565b60006020820190508181036000830152610ce081610b45565b9050919050565b60006020820190508181036000830152610d0081610bab565b9050919050565b60006020820190508181036000830152610d2081610beb565b9050919050565b6000602082019050610d3c6000830184610c2b565b92915050565b6000606082019050610d576000830186610c2b565b8181036020830152610d698185610acc565b9050610d786040830184610c2b565b949350505050565b6000604051905081810181811067ffffffffffffffff82111715610da757610da6610f60565b5b8060405250919050565b600067ffffffffffffffff821115610dcc57610dcb610f60565b5b601f19601f8301169050602081019050919050565b600081519050919050565b600082825260208201905092915050565b6000610e0882610e1b565b9050919050565b60008115159050919050565b600073ffffffffffffffffffffffffffffffffffffffff82169050919050565b6000819050919050565b82818337600083830152505050565b60005b83811015610e72578082015181840152602081019050610e57565b83811115610e81576000848401525b50505050565b60006002820490506001821680610e9f57607f821691505b60208210811415610eb357610eb2610f31565b5b50919050565b6000610ec482610e3b565b91507fffffffffffffffffffffffffffffffffffffffffffffffffffffffffffffffff821415610ef757610ef6610f02565b5b600182019050919050565b7f4e487b7100000000000000000000000000000000000000000000000000000000600052601160045260246000fd5b7f4e487b7100000000000000000000000000000000000000000000000000000000600052602260045260246000fd5b7f4e487b7100000000000000000000000000000000000000000000000000000000600052604160045260246000fd5b6000601f19601f8301169050919050565b610fa981610dfd565b8114610fb457600080fd5b50565b610fc081610e3b565b8114610fcb57600080fd5b5056fea2646970667358221220063599da2eff1668f7a042c79f1be66788fbba080e35fedf37ec0e781a07484e64736f6c63430008000033",
  "immutableReferences": {},
  "source": "// SPDX-License-Identifier: MIT\r\npragma solidity ^0.8.0;\r\n\r\ncontract Voting {\r\n    struct Candidate {\r\n        uint id;\r\n        string name;\r\n        uint voteCount;\r\n    }\r\n\r\n    // Mappings\r\n    mapping(uint => Candidate) public candidates;\r\n    mapping(address => bool) public voters;\r\n\r\n    // State variables\r\n    uint public candidatesCount;\r\n    uint public totalVotes;\r\n\r\n    // Events\r\n    event Voted(address indexed voter, uint indexed candidateId);\r\n    event CandidateAdded(uint indexed candidateId, string name);\r\n    event CandidateRemoved(uint indexed candidateId);\r\n\r\n    // Modifier to check for valid candidate ID\r\n    modifier validCandidate(uint _candidateId) {\r\n        require(_candidateId > 0 && _candidateId <= candidatesCount, \"Invalid candidate ID.\");\r\n        _;\r\n    }\r\n\r\n    // Add a new candidate\r\n    function addCandidate(string memory _name) public {\r\n        require(bytes(_name).length > 0, \"Candidate name must be non-empty.\");\r\n        candidatesCount++;\r\n        candidates[candidatesCount] = Candidate(candidatesCount, _name, 0);\r\n        emit CandidateAdded(candidatesCount, _name);\r\n    }\r\n\r\n    // Remove a candidate\r\n    function removeCandidate(uint _candidateId) public validCandidate(_candidateId) {\r\n        Candidate storage candidateToRemove = candidates[_candidateId];\r\n        require(bytes(candidateToRemove.name).length > 0, \"Candidate does not exist.\");\r\n\r\n        delete candidates[_candidateId];\r\n        emit CandidateRemoved(_candidateId);\r\n    }\r\n\r\n    // Vote for a candidate\r\n    function vote(uint _candidateId) public validCandidate(_candidateId) {\r\n        require(!voters[msg.sender], \"You have already voted.\");\r\n\r\n        voters[msg.sender] = true;\r\n        candidates[_candidateId].voteCount++;\r\n        totalVotes++;\r\n\r\n        emit Voted(msg.sender, _candidateId);\r\n    }\r\n\r\n    // Get the vote count for a candidate\r\n    function getVoteCount(uint _candidateId) public view validCandidate(_candidateId) returns (uint) {\r\n        return candidates[_candidateId].voteCount;\r\n    }\r\n\r\n    // Get candidate details (name and vote count)\r\n    function getCandidate(uint _candidateId) public view validCandidate(_candidateId) returns (string memory name, uint voteCount) {\r\n        Candidate memory candidate = candidates[_candidateId];\r\n        return (candidate.name, candidate.voteCount);\r\n    }\r\n\r\n    // Get the total number of candidates\r\n    function getCandidatesCount() public view returns (uint) {\r\n        return candidatesCount;\r\n    }\r\n\r\n    // Get total votes cast in the election\r\n    function getTotalVotes() public view returns (uint) {\r\n        return totalVotes;\r\n    }\r\n}\r\n",
  "sourcePath": "C:\\Users\\isafw\\Coding no backup\\Git\\BlockChain\\Truffle\\contracts\\Voting.sol",
  "compiler": {
    "name": "solc",
    "version": "0.8.0+commit.c7dfd78e.Emscripten.clang"
  },
  "schemaVersion": "3.4.16",
  "updatedAt": "2024-11-07T09:33:56.347Z",
  "devdoc": {
    "kind": "dev",
    "methods": {},
    "version": 1
  },
  "userdoc": {
    "kind": "user",
    "methods": {},
    "version": 1
  }
}